:020000040800F2
:10000000980700200501000823260008251F000886
:1000100021260008E5040008613000080000000007
:100020000000000000000000000000004B2D000850
:10003000CD06000800000000492D00084D2D0008E5
:100040001F0100081F0100081F0100081F01000810
:100050001F0100081F0100081F0100081F01000800
:100060001F0100081F0100081F0100081F010008F0
:100070001F0100081F0100081F0100081F010008E0
:100080001F0100081F010008F50300081F010008F8
:100090001F0100081F0100081F0100081F010008C0
:1000A0001F0100081F0100081F0100081F010008B0
:1000B0001F0100081F0100081F0100081F010008A0
:1000C0001F0100081F0100081F0100081F01000890
:1000D0001F01000849300008553000081F010008C2
:1000E0001F0100081F0100081F010008DFF810D0E1
:1000F00000F05EF900480047CD350008AFF30080FE
:10010000980700200648804706480047FEE7FEE7BC
:10011000FEE7FEE7FEE7FEE7FEE7FEE7FEE7FEE7B7
:10012000C72D0008ED000008202A04DB203A21FA40
:1001300002F00021704721FA02F3D040C2F1200200
:10014000914008431946704740EA01039B0703D0DA
:1001500009E008C9121F08C0042AFAD203E011F806
:10016000013B00F8013B521EF9D27047D2B201E0C8
:1001700000F8012B491EFBD270470022F6E710B5AC
:1001800013460A4604461946FFF7F0FF204610BD05
:10019000421E12F8013F002BFBD111F8013B02F87F
:1001A000013B002BF9D1704730B505462A460B4676
:1001B00012F8010B13F8014B08B1A042F8D01CB1A2
:1001C000002802D06D1CF1E7284630BDCAB2401E9F
:1001D00010F8011F8A4202D00029F9D1002070478F
:1001E000421C10F8011B0029FBD1801A704710B582
:1001F000044600E0401C0378002BFBD100E0401CCB
:10020000521E04D311F8013B0370002BF7D10021DB
:100210000170204610BD034611F8012B00F8012B98
:10022000002AF9D11846704780EA010210B502F0A1
:100230000043400022D04A001FD0010E01EB1261A2
:10024000C0F35600C2F3560240F4000042F400022C
:10025000A0FB022000047F39140400D0401C50EAA7
:10026000124001D44000491EC2B20C0604EBD0106B
:10027000401C4008802A02D003E0002010BD20F07E
:100280000100002900DA0020184310BD420005D00B
:10029000C0F3C7525242914201DC0020704700EB8C
:1002A000C150704796230022114600F053B800F069
:1002B000004220F00040C10DC0F3160040F40000E1
:1002C0007F2901DA00207047962903DCC1F19601ED
:1002D000C84001E096398840002AF4D04042704777
:1002E0002DE9F05F0546002092469B46884606466B
:1002F000814640241BE02846414647462246FFF7F8
:1003000013FF53465A46C01A914110D3114618465E
:10031000224600F05FF82D1A67EB01084F4622468F
:100320000120002100F056F817EB00094E41201E75
:10033000A4F10104DFDC484631462A464346BDE8C5
:10034000F09F0029A8BF7047401C490008BF20F05B
:100350000100704710B4B0FA80FC00FA0CF050EACB
:10036000010404BF10BC704749B1CCF1200421FA4C
:1003700004F411FA0CF118BF012121430843A3EB47
:100380000C01CB1D4FEA00614FEA102042BF002054
:1003900010BC704700EBC35010440029A4BF10BC30
:1003A0007047401C490008BF20F0010010BC704796
:1003B000064C074D06E0E06840F0010394E80700B2
:1003C00098471034AC42F6D3FFF794FE584000082B
:1003D00078400008202A04DB203A00FA02F10020CD
:1003E00070479140C2F1200320FA03F31943904073
:1003F0007047000010B5044800F04AFBBDE810400B
:10040000024800F045BB00002800002058000020F2
:1004100070B5044600688168C943C90717D181686F
:1004200021F00101816000F0F7FE05460AE000BFFF
:1004300000F0F2FE401B022804D920688068C04307
:10044000C00706D020688068C043C007F0D00020F5
:1004500070BDA06A40F01000A062E06A40F00100A8
:10046000E062012070BD0000F8B500260446009649
:1004700000688168C943C9072DD0816841F0010136
:100480008160164816490068B0FBF1F000E0401E9C
:1004900000900028FBD100F0BFFE054616E000BF2B
:1004A00000F0BAFE401B022810D920688068C043C3
:1004B000C0070BD0A06A40F01000A062E06A40F0D4
:1004C0000100E06284F824600120F8BD20688068A3
:1004D000C043C007E4D10020F8BD00001800002090
:1004E00040420F00FEE7000070B5002400F050F815
:1004F0004FF40065124E04E0641CE4B2012000F0E9
:1005000021F82946304600F07DFE10B1642CF3D36B
:100510000FE0642C0DD2002404E0641CE4B201203E
:1005200000F010F82946304600F06CFE18B1642C3B
:1005300004D3012070BD642CEFD3FAE7002070BD16
:10054000000C01402DE9F0414FF0E0240546A76979
:1005500000F062FE064605EBC500C500BD420BD9A2
:1005600000F05AFEB042FBD00849781B0844A1694C
:100570008142FCD8BDE8F0817D1BA069A842F9D971
:1005800000F04AFEB042F8D0F4E700004019010044
:100590001FB50020019002904FF4006000900320EE
:1005A00003906946014800F03DFD1FBD000C01406D
:1005B0001FB54FF4006000900120019002900320CD
:1005C00003906946014800F02DFD1FBD000C01405D
:1005D00070B500244FF40065134E04E0641CE4B2CF
:1005E0000120FFF7AFFF2946304600F00BFE08B1AF
:1005F000642CF3D3002404E0641CE4B20120FFF770
:10060000A1FF2946304600F0FDFD08B9642CF3D364
:100610002820FFF797FF2946304600F0F3FD002819
:1006200000D0012070BD0000000C014070B500201A
:1006300004464006050EFFF7CBFF641C2843E4B2D6
:10064000082CF6D370BD2DE9FC410D46064600F09E
:1006500023F8FFF749FF10B10120BDE8FC81002419
:100660006F46FFF7E3FF3855641CE4B2052CF8D35E
:100670009DF800109DF801009DF803300A189DF8C0
:10068000020003441A449DF804309A4201D12970B3
:1006900030700020E1E7000070B5FFF789FF0A4DD8
:1006A0004FF4006400222146284600F0B0FD1420DB
:1006B00000F0A6FC01222146284600F0A8FDBDE876
:1006C00070401E20FFF73EBF000C01407047000045
:1006D00010B580210348FFF750FD03490020088032
:1006E00010BD0000180100200800002010B50446CD
:1006F00000F01EF958B90AA10B48FFF755FD30B1BB
:100700003A21FFF763FD002800D0401C10BD0520F2
:1007100000F076FC2046641EA4B2E9D210BD0000B1
:100720004950442C000000001801002010B592B080
:10073000FFF7CEFF2AA1D1E90001CDE9100110A8F1
:1007400003F02CF94FF4FA7402E0204600F058FC54
:1007500025A126A000F0A4F80028F6D125A00AAB18
:1007600007C883E807000AA803F018F902E020464A
:1007700000F046FC1CA122A000F092F80028F6D15F
:1007800023A10DAB07C983E807000DA803F006F904
:1007900002E0204600F034FC20A122A000F080F806
:1007A0000028F6D126A006AC0FC884E80F0006A8E2
:1007B00003F0F4F84FF47A7402E0204600F020FCD5
:1007C00023A125A000F06CF80028F6D118222EA154
:1007D0006846FFF7B9FC684603F0E0F812B010BDB8
:1007E000312E2041540D0A004F4B000041540D0A98
:1007F00000000000322E2043574D4F44450D0A00A3
:1008000041542B43574D4F44453D310D0A000000E4
:10081000342E2043574A41500D0A0000474F5420C0
:100820004950000041542B43574A41503D226778BC
:10083000222C223132333435363738220D0A00006B
:10084000352E2043495053544152540D0A000000A4
:10085000434F4E4E4543540041542B43495053544B
:100860004152543D22544350222C226D71747473B2
:100870002E6865636C6F7564732E636F6D222C3107
:100880003838330D0A000000362E204553503832D8
:10089000363620496E6974204F4B0D0A0000000067
:1008A00070B50E460546C824FFF79AFC82B2294669
:1008B0000B4802F0D6FB0EE000F03AF840B93146A2
:1008C0000848FFF771FC18B1FFF702FF002070BD68
:1008D0000A2000F095FB641EE4B2EDD2012070BD49
:1008E000D00000201801002030B589B00C46054624
:1008F000FFF7EEFE224608A1684602F0CFFB0AA1F0
:100900006846FFF7CDFF002804D122462946074854
:1009100002F0A7FB09B030BD41542B434950534569
:100920004E443D25640D0A003E000000D00000202A
:100930000648018831B14288914205D100210180E9
:1009400008467047012070474180FBE708000020FF
:1009500072B6FEE710B5044600F082FA0121204687
:1009600000F0E0F9204600F090F8FFF79BFC054905
:10097000FFF75AFC6FF00B01FFF788FCBDE8104051
:10098000FFF795BC0000C84270470000F8B500248E
:10099000009490F824202546012A12D0012280F8E4
:1009A00024204A681F23072A0DD20668776B521E3F
:1009B00002EB820293409F430B6893401F4377638F
:1009C00019E00220F8BD06680D2A0AD2376BD21F43
:1009D00002EB820293409F430B6893401F433763AF
:1009E00009E0F76A0D3A02EB820293409F430B68DD
:1009F00093401F43F7620A68072306680A2A0AD34E
:100A0000F7680A3A02EB420293409F438B68934097
:100A10001F43F76008E0376902EB420293409F43AF
:100A20008B6893401F4337610A68102A01D0112A4E
:100A300020D1124B02689A4217D193681B0219D435
:100A4000936843F4000393600968102912D10C499C
:100A50000C4A0968B1FBF2F101EB8101490000E0A9
:100A6000491E00910029FBD104E0816A41F0200178
:100A70008162012480F824502046F8BD0024014002
:100A80001800002040420F0070470068C06C70479B
:100A900070B50446006806684568A90625D5B10703
:100AA00023D5A16AC90603D4A16A41F40071A162E9
:100AB0008168C1F34241072910D1217B71B9416896
:100AC00021F020014160A06A20F48070A062A06A39
:100AD000C00403D4A06A40F00100A0622046FFF7E2
:100AE000D3FF21686FF01200086028062ED570072A
:100AF0002CD5A06AC00603D4A06A40F40050A062BE
:100B000020688168C1F30231072909D0416849058D
:100B100015D48168C1F34241072910D1217B71B9F5
:100B2000416821F080014160A06A20F48050A062F9
:100B3000A06AC00503D4A06A40F00100A06220466C
:100B4000FFF722FF21686FF00C00086068060CD5E3
:100B5000F0070AD0A06A40F48030A062204600F07E
:100B600093F821686FF00100086070BD2DE9F04135
:100B70004FF0000704003D467ED0A06A002628B949
:100B8000E66284F82460204600F080F82046FFF7F3
:100B90003FFCA16AC90600D420B1A06A40F0100051
:100BA000A06269E0A16A21F4885141F00201A162CA
:100BB0006268E169237B0A4347EA43010A43A1686B
:100BC0004FF48077B94209D0012907D05FF00001C6
:100BD00094F814C0BCF1010F02D00AE03946F7E7DF
:100BE000F3B1A36A43F02003A362E36A43F0010375
:100BF000E3622368D3F804C02CF4694C4CEA010C7E
:100C0000C3F804C021688B68DFF870C003EA0C03E6
:100C100013438B60A168B9420BD0012909D00CE0C5
:100C2000DFF85CC0A3690CEB43330B4343F4006172
:100C3000DFE7218A0D05A5F580152168CB6A23F42D
:100C400070032B43CB62216889680E4B1940914297
:100C500008D1E662A16A21F0020141F00101A1621E
:100C6000BDE8F081A06A20F0020040F01000A06210
:100C7000E06A40F00100E0620120F1E7FDF7E1FFEA
:100C800000E0FFFFFE0E1FFF7047000010B586B0AA
:100C9000002100910191029103911E4C03681E49AD
:100CA00003221E48A34211D18B6943F400738B6168
:100CB0008B6903F4007304938B6943F004038B6125
:100CC000896901F004010491022113E0144CA3424C
:100CD0001DD18B6943F480638B618B6903F480635E
:100CE00004938B6943F004038B61896901F004016B
:100CF00004911021CDE90012694600F093F9002219
:100D00001146122000F0F4FA122000F0E3FA06B0C7
:100D100010BD000000240140001002400008014006
:100D2000002801402DE9F84300270D4604460097AE
:100D300000F072FA804620688168C90508D5A06A6B
:100D400040F02000A06284F824700120BDE8F88300
:100D50004168C90503D4C06A10F4700F2AD002207C
:100D600000F0F8FA3B490968B1FBF0F62068036926
:100D700039490B424FEA61014FEAA1121FD1C36802
:100D80004FEA611C13EA0C0F19D103690B4225D1FC
:100D9000C068104222D1142023E0681C0AD02DB173
:100DA00000F03AFAA0EB0800A84203D920680068D6
:100DB000800725D5206800688007EED52DE00369FF
:100DC0000B4202D1C168114206D0026923490A428E
:100DD00006D1C068084203D1542002E0292000E077
:100DE000FC204643009816E0681C11D02DB100F09D
:100DF00013FAA0EB0800A8420AD90098B04207D223
:100E0000A06A40F00400A06284F8247003209DE7EB
:100E10000098401C0090B042E6D321686FF01200A9
:100E20000860A06A40F40070A06220688068C0F387
:100E3000424007280CD1207B50B9A06A20F4807072
:100E4000A062A06AC00403D4A06A40F00100A062BE
:100E500000207BE7180000202449922449922400B6
:100E600070B5044690F8240001280DD0012084F8C4
:100E700024002046FFF7F8FA02004FF0000005D0EA
:100E800084F82400104670BD022070BDA16A40F2B3
:100E90000123994341F48071A1621F4D23681F49CA
:100EA000AB4218D10E6816F4702F14D0A66A46F41F
:100EB0008016A6620E68760505D5A66A26F4005649
:100EC00046F48056A662A66AF6040AD5E66A26F0BB
:100ED0000606E66206E0A66A26F48016A6625E684A
:100EE000E9E7E06284F824006FF0020018602068EF
:100EF0008368C3F34243072B05D1A84208D1096890
:100F000011F4702F04D0816841F480118160B9E739
:100F1000816841F4A001F9E7002801400424014060
:100F200010B590F821100022022905D00421816318
:100F300080F82020012010BD01680B6823F00E030B
:100F40000B6001680B6823F001030B6090F84030E0
:100F5000C46B012101FA03F3636080F8211080F86B
:100F60002020104610BD000010B590F8211000247C
:100F7000022903D00421816301243DE001680A684D
:100F800022F00E020A6001680A6822F001020A607B
:100F90001A4A0168914201D1012121E0174A143215
:100FA000914201D110211BE0144A2832914201D113
:100FB000891515E0114A3C32914201D189140FE0A4
:100FC0000E4A5032914202D14FF4803108E00B4A70
:100FD0006432914202D14FF4801101E04FF08071F0
:100FE000064A083A5160012180F82110002180F85A
:100FF0002010416B01B18847204610BD0800024017
:1010000070B5044600F008F90546601C02D004489B
:101010000078044400F000F9401BA042FAD370BDF0
:101020000C0000202DE9F84FDFF8B8910024A9F159
:10103000040B23460F2709F1040AABF1040EC9E0A3
:101040000125A5402A40AA427DD1674ED1F804C0AF
:10105000ACEB0608B44532D014DCBCF1030F3AD037
:1010600009DCBCF1000F2AD0BCF1010F1CD0BCF18F
:10107000020F31D11DE0BCF1110F17D0BCF1120FDE
:101080002AD119E0B8F5881F19D006DCB8F5803FE1
:1010900015D0B8F5801F1FD111E0B8F5001F0ED094
:1010A000B8F5041F18D10AE0CB6815E0CB681B1D0A
:1010B00012E0CB6808330FE0CB680C330CE08B6890
:1010C0002BB1012B4FF0080303D0456104E004234A
:1010D00002E0056100E00023FF2A01D8064601E096
:1010E00000F104064FEA840501D9A5F12005D6F8E0
:1010F000008007FA05FC28EA0C0803FA05F548EA1F
:101100000508C6F800804D68ED0062D5374DAE6920
:1011100046F00106AE61AD6924F0030605F0010555
:101120000095334D06EB050CDCF80850A607360F8A
:1011300007FA06F825EA0805DFF8B880404503D12C
:101140004FF0000817E044E0DFF8AC80404502D1E2
:101150004FF001080FE0DFF8A480404502D14FF0C6
:10116000020808E0DFF89880404502D14FF00308FC
:1011700001E04FF0040808FA06F848EA0508CCF840
:1011800008804D68D9F80060ED024D4601D5164340
:1011900000E096432E604D68DAF80060AD025546D7
:1011A00001D5164300E096432E604D68DBF80060E1
:1011B000AD035D4601D5164300E096432E604D68B1
:1011C000DEF80060ED03754601D5164300E0964356
:1011D0002E60641C0D682A46E5407FF431AFBDE8FF
:1011E000F88F0000080401400000111000100240B8
:1011F0000000014000080140000C014000100140C7
:10120000001401408068084000D0012070470AB1F6
:10121000016170470904FBE70148806870470000DE
:101220000C000020024881680278114481607047F8
:101230000C000020074810B5016841F01001016062
:10124000032000F075F80F2000F006F800F024F8F5
:10125000002010BD0020024070B50D4D04464FF433
:101260007A712878B1FBF0F00A490968B1FBF0F017
:1012700000F0A4FB48B9102C07D200222146501ED2
:1012800000F036F800206C6070BD012070BD0000D9
:101290000C000020180000200C4808B5816941F0BE
:1012A00001018161816901F001010091C16941F091
:1012B0008051C161C06900F08050009004484168CD
:1012C00021F0E06141F00071416008BD0010024072
:1012D00000000140002809DB00F01F0201219140BD
:1012E0004009800000F1E020C0F8001170470000C4
:1012F000F0B40E4B1B680C46C3F30223C3F1070581
:10130000042D00D90425191D072901D2002300E06E
:10131000DB1E012606FA05F1491E214099409E4038
:10132000761E16403143F0BC01F0CCBE0CED00E05F
:10133000064900F0070208684FF6FF03184040EA2C
:101340000220034A10430860704700000CED00E0E3
:101350000000FA0510B501460020234C012922D0D7
:10136000022939D010291DD161682268D20119D50E
:101370001E48C1F38342C903805C0AD561681B4AD9
:10138000C1F34041921E515C194AB2FBF1F148434E
:1013900001E0184948436168490203D44000032131
:1013A000B0FBF1F010BD226AC2F30121012903D183
:1013B000920701D5C80310BD022905D1626A9207C0
:1013C00002D549F6404010BD0329FCD121688903AC
:1013D000F9D54FF2244010BD00F02AF96168C1F33D
:1013E0008131491C4900DBE700100240B43F00088E
:1013F00000127A0000093D002DE9F8430546007807
:10140000354CC00754D0E0690026C00008D4E0691C
:1014100040F08050E061E069012600F080500090CB
:101420002E480168C90512D40168804641F48071D4
:101430000160FFF7F1FE074605E000BFFFF7ECFE95
:10144000C01B642823D8D8F80000C005F6D5206A50
:1014500010F4407021D0A98801F4407181421CD061
:10146000206A1F49012220F440700A6000220A60AD
:101470002062C00711D0FFF7CFFE074641F288383F
:1014800008E000BFFFF7C8FEC11B414502D9032099
:10149000BDE8F883206A8007F4D5206A696820F4E3
:1014A0004070084320621EB1E06920F08050E06186
:1014B0002878800705D56068A96820F44040084373
:1014C00060602878C00605D56068E96820F480006F
:1014D000084360600020DBE700100240007000401D
:1014E000400442422DE9F0470F46050061D0434ECB
:1014F000306800F00700B84209D2306820F00700D9
:1015000038433060306800F00700B84251D1286895
:101510003B4C810712D5400703D5606840F4E0607A
:1015200060602878000703D5606840F46050606010
:101530006068A96820F0F000084360602878C00760
:1015400028D06868012810D02168022810D08907A7
:1015500000292EDA616821F0030101436160FFF781
:101560005BFE804641F288390DE021688903EFE790
:101570008901EDE7FFF750FEA0EB0801494502D9CC
:101580000320BDE8F0876068696800F00C00B0EBEC
:10159000810FEFD1306800F00700B8420BD93068F6
:1015A00020F0070038433060306800F00700B84290
:1015B00001D00120E5E72878400705D56068E96893
:1015C00020F4E060084360602878000706D5606872
:1015D000296920F4605040EAC100606000F038F8EA
:1015E0006168084AC1F30311515CC84006490860AC
:1015F00006480068FFF730FE0020C2E700200240E6
:1016000000100240C43F0008180000201000002015
:101610000448054900684968044AC1F30221515C45
:10162000C84070471800002000100240D43F000856
:101630000448054900684968044AC1F3C221515C65
:10164000C84070471800002000100240D43F000836
:101650000E4A51680E4801F00C03042B11D0082BE0
:101660000FD10C48C1F38343C903C05C0AD551684C
:10167000084AC1F34041921E515C054A5043B0FBF9
:10168000F1F07047044948437047000000100240E1
:1016900000127A00A23F000800093D002DE9F84F32
:1016A000040070D02078C04DC00749D06868C0F3EE
:1016B0008100012807D06868C0F38100022809D1A1
:1016C0006868C00306D52868800339D5606800289B
:1016D000E7D035E06068B0F5803F0BD010B1B0F5D1
:1016E000A02F11D0286820F480302860286820F4CA
:1016F000802002E0286840F480302860606890B163
:10170000FFF78AFD06460AE0286840F4802028603A
:10171000F0E700BFFFF780FD801B642873D82868BE
:101720008003F7D50CE0FFF777FD064605E000BF24
:10173000FFF772FD801B6428F0D828688003F7D477
:1017400020789A4E80074FF001094FF0000839D5F4
:10175000686810F00C0F07D06868C0F38100022899
:1017600009D16868C00306D42868800714D52069A9
:10177000012808D110E02069B0B1C6F80090FFF749
:101780004BFD074605E00AE1FFF746FDC01B0228B6
:10179000C4D828688007F7D52868616920F0F80068
:1017A00040EAC10028600DE0C6F80080FFF734FD74
:1017B000074604E0FFF730FDC01B022823D8286845
:1017C0008007F7D4207800072CD57948A169D9B1D2
:1017D000C0F80090FFF720FD074604E0FFF71CFD6E
:1017E000C01B02280FD8686A8007F7D571484FF4EC
:1017F000FA510068B0FBF1F0009000BF0098411E64
:101800000091FAD20EE080E0C0F80080FFF704FDFE
:10181000074604E0FFF700FDC01B022875D8686A80
:101820008007F7D42078400760D5E8690027C0001A
:1018300008D4E86940F08050E861E869012700F0C9
:10184000805000905C480168C90513D40168834644
:1018500041F480710160FFF7DFFC824606E000BFC3
:10186000FFF7DAFCA0EB0A0064284ED8DBF8000092
:10187000C005F5D5E06801280AD008B1052813D0C5
:10188000286A20F001002862286A20F0040002E0A3
:10189000286A40F001002862E06841F2883B98B174
:1018A000FFF7BAFC82460BE0286A40F00400286289
:1018B000EEE700BFFFF7B0FCA0EB0A0159455AD88C
:1018C000286A8007F6D50CE0FFF7A6FC824605E003
:1018D000FFF7A2FCA0EB0A0159454CD8286A800703
:1018E000F6D41FB1E86920F08050E861E06988B360
:1018F0006968C1F38101022944D00228C6F86080DA
:1019000004D0FFF789FC044638E034E0FFF784FC9C
:10191000074604E0FFF780FCC01B02282BD828688C
:101920008001F7D4206AB0F5803F05D16868A168CE
:1019300020F4003008436860D4E90801084369686E
:1019400021F4741108436860C6F86090FFF764FCE6
:10195000044606E025E000BFFFF75EFC001B0228FE
:1019600009D828688001F7D51BE000BFFFF754FCB9
:10197000001B022802D90320BDE8F88F28688001E7
:10198000F4D40EE00128F7D06868226A00F48031B0
:10199000914204D1616A00F47010884201D00120A4
:1019A000EAE70020E8E700000010024000004242A1
:1019B00080044242180000200070004010B5401E14
:1019C000B0F1807F01D3012010BD4FF0E0246061B1
:1019D0000F21601701F076FB0020A0610720206135
:1019E000002010BD7047704710F8411F4078084331
:1019F00070470000F8B5016804460868CA684B697A
:101A000010F00F0F4FF0000559D003F0010602F45B
:101A10009077374365D0C10705D0D10503D5616CF8
:101A200041F001016164410705D5D90703D0616C1C
:101A300041F002016164810705D5D90703D0616CCB
:101A400041F004016164010707D502F02001314330
:101A500003D0616C41F008016164616C00293AD0E7
:101A6000800604D5900602D5204601F0DCF92068F6
:101A70004069616CC0F38010090700D460B3204650
:101A800001F0AAF920684069400621D52068143089
:101A900050E8001F21F0400140E80012002AF5D173
:101AA000E06BA8B16D494163E06BFFF75DFA002878
:101AB00011D0E06B416B01B0BDE8F04008478306F0
:101AC0000FD593060DD52046BDE8F84001F0ABB91F
:101AD0002046FFF788FFF8BD2046FFF784FF6564C6
:101AE000F8BD266B2023012E7CD1C6067AD5D606FA
:101AF00078D508684868009048694FF002064006AB
:101B000040D5E16B086840680004000CE8D0A28D65
:101B10008242E5D9E085886920282DD020680C30E4
:101B200050E8001F21F4807140E80012002AF5D12E
:101B30002068143050E8001F21F0010140E8001235
:101B4000002AF5D12068143050E8001F21F0400130
:101B500040E80012002AF5D184F84230256320685D
:101B60000C3050E8001F21F0100140E80012002A5C
:101B7000F5D1E06BFFF7D4F96663A08DE18D401AD3
:101B800081B22AE0A08DE18D401A81B2E08D00285B
:101B9000A6D00029A4D022680C3252E8000F20F40D
:101BA000907042E80007002FF5D12068143050E80B
:101BB000002F22F0010240E80027002FF5D184F821
:101BC0004230256320680C3050E8002F22F01002CC
:101BD00040E80023002BF5D166632046FFF702FFA3
:101BE000F8BDFFE705062BD5150629D594F8410069
:101BF0002128F5D1A068B0F5805F01D12069B0B18E
:101C0000206A411C2162216800784860E08C401EF7
:101C10000004000CE084E3D12068C16821F0800159
:101C2000C1602068C16841F04001C160D8E7206A06
:101C30000088C0F308004860206A801C2062E5E745
:101C40004006CDD55006CBD5CA68204622F04002CA
:101C5000CA6084F8413000F021F9C1E7C92D0008BD
:101C600070B5040004D094F84100002510B106E0DE
:101C7000012070BD84F84050204600F023F8242055
:101C800084F841002068C16821F40051C1602046F9
:101C900001F02AF92068016921F49041016120686E
:101CA000416921F02A0141612068C16841F4005175
:101CB000C1606564202084F8410084F842006563B7
:101CC000002070BD70B586B0002400940194029489
:101CD00003942E4E03682E49022003222D4DB34259
:101CE00026D18B6943F480438B618B6903F4804375
:101CF00004938B6943F004038B618969039201F0BB
:101D0000040104910102CDE9001069462846FFF75D
:101D100089F92815CDE90004694628460294FFF7A1
:101D200081F9002211462520FFF7E2FA252028E05C
:101D3000194EB34227D1CB6943F40033CB61CB6951
:101D400003F4003304938B6943F004038B618969C6
:101D5000039201F0040104910421CDE900106946C9
:101D60002846FFF75FF90820CDE9000469462846B8
:101D70000294FFF757F9002211462620FFF7B8FA20
:101D80002620FFF7A7FA06B070BD0000003801401A
:101D900000100240000801400044004090F842302A
:101DA000202B01D00220704721B11AB10023036318
:101DB00001F0F6B80120704700680B49884212D143
:101DC0000A490888802801D3002008800848094B68
:101DD000427808881A54401C088005490122491C91
:101DE0000548FFF7DBBF70470044004008000020B3
:101DF0000000002018010020D00000202DE9F84349
:101E0000044690F84100984616460D46202802D018
:101E10000220BDE8F88385B17EB1002060642120F6
:101E200084F84100FFF7F8F9A6848146E684A068AB
:101E30002027B0F5805F02D003E00120E9E72069A8
:101E400010B12E4600250EE000260CE08021204631
:101E500001F0C1F8A8B9C6B116F8010B21684860B5
:101E6000E08C401EE084E08C4B464FF00002CDF841
:101E700000800028EAD14FF04001204601F0ABF885
:101E800040B184F841700320C3E735F8020BC0F37A
:101E90000800E3E784F841700020BAE770470000CB
:101EA00070B54FF480510D4C4D0018B1012803D08E
:101EB000022807D0002200E001222046FFF7A7F900
:101EC000002204E000222046FFF7A1F90122294662
:101ED0002046BDE87040FFF79AB90000000C0140B1
:101EE00000B585B0002002900C48816941F00801DE
:101EF00081618069694600F0080004904FF4405009
:101F0000009001200190022003900548FFF78AF815
:101F10000020FFF7C5FF05B000BD00000010024023
:101F2000000C0140FEE7000000B585B000200190E4
:101F30000A48816941F0080181618069694600F0C1
:101F4000080004904FF440400090022002900320CB
:101F500003900348FFF766F805B000BD001002408B
:101F6000000C014010B50446007B012802D1206816
:101F700001F004FB002020606060A060207310BDB1
:101F80005FF0010200F07F030B70C00909D043F03D
:101F90008003521C01F8013B042AF3DD4FF0FF30AF
:101FA0007047104670472DE9F0410446002500684F
:101FB0000F462E4610B10220207315E00120207339
:101FC000084601F0B5FC2060002808D0C4E901678C
:101FD00002E0206846556D1CA068A842F9D8BDE80B
:101FE000F081206846556D1CA068A842F9D866604B
:101FF0008842F4D22660F2E72DE9FF5F9A469346C5
:1020000000251046DDF844900E9F139CFEF7E8F87B
:1020100006B2BBF1000F1FD006F111001FFA80F8C5
:1020200007B10225109868B145F00405FEF7D8F80D
:10203000C7B24846FEF7D4F8C11901EB0800001DED
:102040001FFA80F80F9870B1012807D0022808D035
:10205000022004B0BDE8F09F0120FAE745F00C052E
:1020600001E045F01405129808B145F024050098E8
:1020700060B3019850B345F0C0070098FEF7B0F880
:1020800005460198FEF7ACF8291801EB0800001D81
:1020900085B229462046FFF786FF2068C0B1294651
:1020A000FEF76BF8D4E90030411C102261601A542D
:1020B000D4E900010144681FFFF762FF00B2002865
:1020C00008DA2046FFF74EFF0520C2E70320C0E7ED
:1020D0000420BEE7616823680844411C6160002257
:1020E0001A54D4E90030421C042162601954D4E926
:1020F0000050421C4D2362602B54D4E90050421C16
:10210000626051232B54D4E90030451C5422656091
:102110001A54D4E90050431C63602A54D4E90030B7
:10212000421C62601954D4E90020411C61601754BC
:10213000D4E90030411C4FEA1A2261601A54D4E9F4
:102140000030421C626003F800A0D4E90030411C5A
:10215000320A61601A54D4E90020411C61601654AF
:10216000D4E90001084432465946FEF740F8606859
:1021700030446060780736D5B9F1000F01D10FF215
:10218000D8091098FEF72CF885B2D4E90030411C2C
:102190002A0A61601A54D4E90020411C6160155478
:1021A000D4E9000108442A461099FEF720F8606837
:1021B000284460604846FEF713F885B2D4E9003041
:1021C000411C2A0A61601A54D4E90020411C616054
:1021D0001554D4E9000108442A464946FEF707F899
:1021E000606828446060380618D50098FDF7F8FF4D
:1021F00085B2D4E90030411C2A0A61601A54D4E93E
:102200000020411C61601554D4E9000108442A46AD
:102210000099FDF7ECFF606828446060780618D5E7
:102220000198FDF7DDFF85B2D4E90030411C2A0A90
:1022300061601A54D4E90020411C61601554D4E94E
:10224000000108442A460199FDF7D1FF606828443F
:1022500060600020FDE60000000000002DE9FF4F57
:1022600081B090464FF00006119C0F9A9A465FEAA3
:10227000000BB146314608D1012005B0BDE8F08F12
:10228000232816D02B2814D0761C0298805D0028B5
:10229000F6D141F030070AB147F0010706EB0A0515
:1022A0000E98AD1C68B1012805D0022806D0032085
:1022B000E3E70220E1E747F0020701E047F0040707
:1022C000AD1CB8F1000F03D098F80000022807D029
:1022D000E91C2046FFF767FE206850B3E91C14E0B4
:1022E0005FF0000018F80010401C7D29FAD100F1C1
:1022F0000409AAEB0900291A00912046C91CFFF71E
:1023000052FE2068A8B10099C91CFDF736FFD4E938
:102310000020411C61601754D4E9000101442846A3
:10232000FFF72EFE002806DA2046FFF71BFE0520E9
:10233000A3E70420A1E7616823680844411C320A2E
:1023400061601A54D4E90020411C61601654D4E93C
:102350000001084432460299FDF749FF60683044A5
:1023600060600E9959B12368411C4FEA1B226160DD
:102370001A54D4E90030421C626003F800B0B8F18E
:10238000000F0ED098F800000228D4E9000108449C
:1023900009D052464146FDF7D7FE616801EB0A00BD
:1023A0006060002069E74A464146FDF7CDFE61685E
:1023B00001EB0900F4E700001FB50120069A002395
:1023C000CDE90003CDE902020B46002204A10A2058
:1023D000FFF744FF002800D0012004B010BD00002A
:1023E000247379732F785548736468347768332F72
:1023F000746573742F7468696E672F70726F70657F
:102400007274792F706F737400000000F0B5044689
:10241000002001235D05106012E0275C166807F0BC
:102420007F0707FB03661660265C360601D4401C56
:10243000F0BDDB01AB4202D36FF00100F0BD401CE8
:102440008842EADB4FF0FF30F0BD4178022901D02D
:1024500001207047817819B1012901D0FF20704710
:10246000C078704738B504460078FF210009421E45
:102470000E2A01D3084638BD0328FCD10020009065
:102480006A460421601CFFF7C1FF20440099401CEC
:10249000022907D32278D20704D1028852BA921CAB
:1024A0008A4201D9FF2038BD04A1801CFDF77CFEC3
:1024B00008B10F2038BD032038BD000024637265C9
:1024C000710000003EB5002410480094019402946D
:1024D0000D498460016004730475012505614FF4A2
:1024E00060214460C161FEF741FB08B1FEF730FA9C
:1024F0000095CDE9015469460448FEF747FA0028E3
:1025000001D0FEF725FA3EBD00240140280000203E
:1025100070B586B00024244800940194029403947A
:10252000816941F010018161816901F0100104911C
:10253000816941F020018161816901F020010491EC
:10254000816941F004018161816901F00401049114
:10255000816941F0080181618069144E00F0080032
:10256000049000224FF498513046FEF750FE0122AD
:1025700091023046FEF74BFE4FF4B8500125CDE9ED
:1025800000050220CDE9024069463046FEF74AFDCB
:102590002803CDE900050320CDE902406946304615
:1025A000FEF740FD06B070BD00100240000C014077
:1025B0000C4810B50A4901604FF4E1314160002137
:1025C00081600C22C160C0E904128161C161FFF722
:1025D00047FB002803D0BDE81040FEF7B9B910BD95
:1025E00000380140880000200C4810B50A490160FD
:1025F0004FF4E1314160002181600C22C160C0E9EB
:1026000004128161C161FFF72BFB002803D0BDE8F4
:102610001040FEF79DB910BD00440040D0000020DE
:10262000FEE7FEE770B500240021204600F0E4F844
:102630000025002000F07BF96D1CEDB2802DF8D351
:10264000641CE4B2082CEFD370BD0000F0B585B077
:10265000144800240294816941F008018161806975
:10266000012500F0080004904FF44070CDE900050A
:102670000D4F0226694603963846FEF7D3FCC0206C
:10268000CDE90005CDE9024669463846FEF7CAFCA9
:10269000012000F02BF9012000F030F900F09CF847
:1026A00005B0F0BD00100240000C014070B50024E0
:1026B0000646802525FA04F0304000D0012000F0C5
:1026C0001DF9012000F012F9002000F00FF9641C40
:1026D000E4B2082CEED3012000F008F9BDE8704008
:1026E000002000F003B910B5012000F007F9012027
:1026F00000F0FCF8002000F001F9BDE810400020D7
:1027000000F0F4B810B5002000F0F8F8012000F057
:10271000EDF8BDE81040012000F0F0B810B5002041
:102720004FF47A720021491C9142FCD3401C904224
:10273000F8D3FFF78BFFAE2000F0E8F8D52000F0CB
:10274000E5F8802000F0E2F8A82000F0DFF83F2054
:1027500000F0DCF8D32000F0D9F8002000F0D6F823
:10276000402000F0D3F8A12000F0D0F8C82000F0FD
:10277000CDF8DA2000F0CAF8122000F0C7F8812066
:1027800000F0C4F8CF2000F0C1F8D92000F0BEF866
:10279000F12000F0BBF8DB2000F0B8F8302000F0AA
:1027A000B5F8A42000F0B2F8A62000F0AFF88D2014
:1027B00000F0ACF8142000F0A9F8AF2000F0A6F863
:1027C000BDE81040FFF72EBF0246012000E0504355
:1027D000491EFCD27047000010B5064C0122802132
:1027E0002046FEF714FD20460022BDE8104040219F
:1027F000FEF70DBD000C014010B50C4640F0B000D6
:1028000000F084F8102040EA141000F07FF804F083
:102810000F00BDE8104000F079B800002DE9F0414C
:102820000746CE004000083E801E15464FF0FF3898
:10283000F1B2C0B2FFF7E0FF1148002400EB05152C
:102840002819A0F5805090F8000E00F070F8641C74
:10285000E4B2082CF4D308EB4700F1B2C0B2FFF7A2
:10286000CBFF00242819A0F5805090F8080E00F046
:102870005EF8641CE4B2082CF4D3BDE8F0810000DB
:10288000B03900082DE9F04700241D461646884659
:1028900081460A2713E0291B0A20491EFFF794FFEF
:1028A000B6FBF0F0B0FBF7F107FB110208EB0400F8
:1028B000C1B248463032FFF7B1FF641CE4B2AC420B
:1028C000E9D3BDE8F0872DE9F04115460E460746ED
:1028D000002406E03019C1B23846FFF79FFF641CA0
:1028E000E4B22A5D002AF5D1BDE8F08102464FF43A
:1028F00080710148FEF78BBC000C014002464FF48A
:1029000000710148FEF783BC000C014010B504467D
:10291000FFF7E9FE7820FFF7C9FE0020FFF7C6FEAB
:102920002046FFF7C3FEBDE81040FFF7EBBE10B531
:102930000446FFF7D8FE7820FFF7B8FE4020FFF7E7
:10294000B5FE2046FFF7B2FEBDE81040FFF7DABE45
:1029500030B58BB00024069407940894012527A372
:10296000284A29A12BA0099400F088FB06A8CDE9EC
:1029700004400120CDE900040302029403941FA245
:10298000204921A0FFF738FB48B12EA000F076FBCC
:102990004FF4FA70FEF734FB0BB0284630BD0798B1
:1029A00081B20698FDF7A0FFFA20FDF79FFE040014
:1029B0001DD0FFF757FD022819D12046FFF745FD2E
:1029C000062818D2DFE800F003080A0C0E1026A033
:1029D00000F054FB00250AE029A006E032A004E044
:1029E0003CA002E045A000E051A000F047FB06A893
:1029F000FFF7B8FACCE759A0F7E7000074657374E5
:102A000000000000DC3F00087855487364683477A4
:102A1000683300004F6E654E65745F4465764C699F
:102A20006E6B0D0A50524F49443A2025732C0941D0
:102A30005549463A2025732C0944455649443A25C0
:102A4000730D0A005741524E3A094D5154545F508C
:102A500061636B6574436F6E6E6563742046616974
:102A60006C65640D0A000000546970733A20436F6E
:102A70006E6E65637420537563636573730D0A002E
:102A80005741524E3A20436F6E6E65637420466123
:102A9000696C65643A2050726F746F636F6C204587
:102AA00072726F720D0A00005741524E3A20436F06
:102AB0006E6E656374204661696C65643A20496E88
:102AC00076616C696420436C69656E7449440D0AD3
:102AD000000000005741524E3A20436F6E6E65630E
:102AE00074204661696C65643A205365727665723C
:102AF000204572726F720D0A000000005741524E5D
:102B00003A20436F6E6E656374204661696C65643C
:102B10003A20557365726E616D65206F7220506149
:102B20007373776F7264204572726F720D0A0000C2
:102B30005741524E3A20436F6E6E65637420466172
:102B4000696C65643A20496E76616C696420436FF4
:102B50006E6E656374696F6E0D0A00004552523ADD
:102B600020436F6E6E656374204661696C65643ADC
:102B700020556E6B6E6F776E204572726F720D0A04
:102B80000000000010B58EB004461BA1FDF743FB0A
:102B900038216846FDF7F1FA1D481EA10278684603
:102BA00000F07CFA69462046FDF7F2FA38216846C3
:102BB000FDF7E3FA1D481EA10278684600F06EFAA0
:102BC00069462046FDF7E4FA38216846FDF7D5FA54
:102BD0001D481EA10268684600F060FA694620465A
:102BE000FDF7D6FA1EA12046FDF7D2FA2046FDF7E2
:102BF000F7FA0EB0C0B210BD7B226964223A2231CE
:102C00003233222C22706172616D73223A7B000094
:102C1000020000202274656D70223A7B2276616C7E
:102C20007565223A25647D2C000000000300002019
:102C30002268756D69223A7B2276616C7565223A4D
:102C400025647D2C0000000004000020224D51323C
:102C5000223A7B2276616C7565223A25647D0000FC
:102C60007D7D000030B5A5B00020219022902390FA
:102C7000044624901CA000F001FA802101A8FDF771
:102C80007CFA01A8FFF77EFF054601A91EA000F00F
:102C9000F5F9002D0BD021A800900523002229462C
:102CA0001BA0FFF789FB70B11BA000F0E7F925B06E
:102CB00030BD015DDDE92123D1542299491C641CFA
:102CC00024B2229100E001A8AC42F2DB229881B24A
:102CD0002198FDF709FE18A0229900F0CFF921A84C
:102CE000FFF740F9E3E70000546970733A094F6E4B
:102CF000654E65745F53656E64446174612D4D511A
:102D000054540D0A0000000025730D0A0000000055
:102D100074657374000000005741524E3A094544EF
:102D2000505F4E6577427566666572204661696CD4
:102D300065640D0A0000000053656E642025642060
:102D400042797465730D0A0070477047FEF76ABADE
:102D500030B593B028216846FDF70FFA14210AA870
:102D6000FDF70BFA002401210F9410940804CDE91B
:102D7000001011941294029402250491CDE9075099
:102D80004FF4E01009906846FEF788FC08B172B66F
:102D9000FEE70F20CDE90A054FF48060CDE90C4035
:102DA00002210AA80E94FEF79DFB08B172B6FEE759
:102DB0000FA80F951194FEF71FFB002801D072B6E3
:102DC000FEE713B030BD704710B5406A0021C185E1
:102DD000C184FEF708FE10BD01680C3151E8002FD8
:102DE00022F4907241E80023002BF5D101681431E0
:102DF00051E8002F22F0010241E80023002BF5D119
:102E0000016B012909D101680C3151E8002F22F032
:102E1000100241E80023002BF5D1202180F8421058
:102E200000210163704708B590F84210222901D0B3
:102E3000022008BD82684FF480539A4201D1016993
:102E400021B1816A9A421BD04AB10AE00268816AC4
:102E50005268C2F308020A80816A891C08E002698C
:102E600072B10268526802F07F020A70816A491CDE
:102E70008162C18D491E0904090CC18503D01BE084
:102E800002685268F1E70168CA6822F02002CA604D
:102E90000168CA6822F48072CA6001684A6922F037
:102EA00001024A61202180F8421000214163026B37
:102EB000012A03D0FEF780FF002008BD01630168EE
:102EC0000C3151E8002F22F0100241E80023002BC2
:102ED000F5D101680A68D20602D50A6849680091EE
:102EE000818DFEF77FFDE7E770B504460068016954
:102EF000E26821F44051114301612169A06808434F
:102F0000616908432168CA6841F20C639A4302432D
:102F1000CA6020684169A26921F44071114341618E
:102F20001E492068884202D1FEF782FB01E0FEF7CD
:102F30006FFB00EBC00101EB0012606864218000B0
:102F4000B2FBF0F3B3FBF1F36FF018067343B2FB7F
:102F5000F0F5B2FBF0F605EB8305322303EB051524
:102F6000B5FBF1F5B6FBF1F605F0F00505EB06153E
:102F7000B2FBF0F6B2FBF0F0B0FBF1F06FF018022C
:102F8000504306EB800003EB0010B0FBF1F021682A
:102F900000F00F002844886070BD00000038014038
:102FA00081628285C28500214164222180F842101D
:102FB000016921B10168CA6842F48072CA6001687F
:102FC0004A6942F001024A610068C16841F020018B
:102FD000C160002070472DE9F843984617460D461A
:102FE0000446089E24E0701C22D0FEF715F9A0EBE1
:102FF0000800B0421AD8CEB12068C168490717D579
:10300000802D15D0402D13D00168C94309070FD476
:1030100001680025406800902046FFF7DDFE08208B
:10302000606484F840500120BDE8F8830320FBE78A
:103030002068006835EA000004D00020B842D2D0F1
:103040000020F1E70120F9E70148FEF7D3BC0000BA
:10305000880000200148FEF7CDBC0000D000002011
:10306000FEE710B504464FF6FF73FEF7C7FE204695
:10307000FEF7BAFC2128FAD010BD00000FB4054BB2
:1030800010B503A9044A029800F03CF810BC5DF8A2
:1030900014FB0000653500081C0000200FB4084B2D
:1030A00010B504A902AA039800F02CF8044602A95E
:1030B000002000F052FA204610BC5DF814FB00001E
:1030C0005B3500080907090E002804DB00F1E02049
:1030D00080F80014704700F00F0000F1E02080F845
:1030E000141D704702E008C8121F08C1002AFAD157
:1030F00070477047002001E001C1121F002AFBD178
:10310000704700002DE9FF4F8DB00F4605460026A1
:1031100006E025280BD0DDE90F1290476D1C761CC8
:1031200028780028F5D111B03046BDE8F08F002492
:10313000A246A1460122E94900E0044315F8013FF7
:10314000203B02FA03F00842F7D128782A2810D051
:103150006FF02F022878A0F13001092914D80AEB6A
:103160008A0102EB410144F0020400EB010A6D1CEC
:10317000F0E701CF5FEA000A03D544F40054CAF136
:10318000000A44F002046D1C28782E2817D115F887
:10319000010F44F004042A280ED06FF02F02287883
:1031A000A0F1300109290AD809EB890102EB41019C
:1031B00000EB01096D1CF2E757F8049B6D1C2878A1
:1031C0006C280FD006DC4C2817D068280DD06A2850
:1031D00014D104E0742810D07A280FD10DE044F403
:1031E00000140AE044F4801401E044F440146978C7
:1031F000814202D104F580146D1C6D1C28786E2864
:103200001ED00CDC632830D004DC00288BD058287A
:1032100011D19FE0642867D069280CD164E073283D
:103220002DD004DC6F2872D0702804D194E075286A
:103230006ED078286DD0DDE90F129047761C4BE1F7
:10324000C4F30250022806D0032809D0042801CF75
:1032500009D0066040E101CFF117C0E900613BE110
:1032600001CF068038E1067036E117F8040B8DF8BF
:10327000000000208DF80100EB46012003E057F824
:1032800004BB4FF0FF3061074FF0000102D40DE0A6
:1032900008F10101884649450FDA8045F8DB1BF843
:1032A00008100029F4D108E008F1010188468142A4
:1032B000FADB1BF808100029F6D1DDE90F23AAEB91
:1032C00008008146214600F031F9304400EB080641
:1032D00004E0DDE90F121BF8010B9047B8F101087B
:1032E000F7D221464846F2E00A21C4F302524FF0D9
:1032F000000B0891022A04D001CFC117032A09D07C
:103300000AE0FF1D27F00707F7E8020108E02CE0BC
:103310001EE01FE000B2C117042A01D140B2C1175C
:10332000021E71F1000206DA0023D0EB030063EB0A
:1033300001012D2202E0220504D52B228DF8242044
:10334000012203E0E20701D02022F7E7904653E094
:103350000A210BE0102109E010214FF0000B44F08E
:1033600004044FF00809089103E008214FF0000B16
:103370000891C4F30252022A04D001CF0021032A8B
:1033800006D006E0FF1D27F00707F7E8020103E07B
:1033900080B2042A00D1C0B24FF0000822072BD51A
:1033A0002A78702A07D0DDF820C08CF0100C5CEA77
:1033B0000B0C05D00EE040228DF82420012208E0FD
:1033C00050EA010306D030238DF824308DF82520F3
:1033D00002229046089B83F0080353EA0B030BD1AB
:1033E00050EA010201D1620706D530228DF824206F
:1033F0004FF00108A9F101092A78582A04D038A20F
:103400000B9208AA0A920BE03AA2F9E75B46089AE7
:10341000FCF766FF0B9B9B5C0A9A521E0A92137084
:1034200050EA0102F2D10A98ADEB000000F1200B46
:10343000600702D524F4803401E04FF00109D9453A
:1034400002DDA9EB0B0000E0002000EB0B01414482
:103450000890AAEB010AE00306D4DDE90F23214618
:10346000504600F063F806444FF0000908E009A94F
:1034700011F80900DDE90F12904709F10109761CE6
:10348000C145F4DBE0030CD5DDE90F2321465046AE
:1034900000F04CF8064404E0DDE90F1230209047BC
:1034A000761C0899481E08900029F5DC08E00A9867
:1034B0000A990078491C0A91DDE90F129047761CA1
:1034C000BBF10001ABF1010BF1DC21465046DDE917
:1034D0000F2300F019F806446D1C21E609280100AD
:1034E000303132333435363738396162636465667A
:1034F000000000003031323334353637383941423C
:1035000043444546000000002DE9F04104460025F3
:103510001E461746880404D405E039462020B047EB
:103520006D1C641EF9D52846BDE8F0812DE9F041F7
:10353000044600251E469046C80301D5302700E00A
:103540002027880404D505E041463846B0476D1C65
:10355000641EF9D52846BDE8F0810A68531C0B604B
:103560001070704713B54FF6FF7301226946024889
:10357000FEF744FC00981CBD8800002010B5002810
:1035800021D0114B0022001F196803E0814203D8AB
:103590000A4649680029F9D152B11368841A9C423D
:1035A00004D1006818441060104602E0506000E04A
:1035B000186039B102680B1A934203D10B681A44A0
:1035C00002604968416010BD200000200025FDF721
:1035D00031FEFFF7BDFBFEF79BFFFEF7E9FFFFF7AC
:1035E00003F8FEF76FFFFEF77BFCFFF797F8FFF796
:1035F00019F8FEF799FC012261496248FEF7CEFBFB
:1036000061A0FFF73BFD65A0FFF738FDFDF78EF8E1
:1036100067A0FFF733FD5A4C641E207840F001008C
:10362000207069A0FFF72AFDFFF792F918B16CA08E
:10363000FFF724FDFEE770A0FFF720FD207840F0A3
:103640000201C8432170800706D072A0FFF716FD63
:103650002078C0070FD011E07AA0FFF70FFD834E4E
:10366000012211033046FDF7D2FD37154FF4804893
:103670004FF4004909E07EA0FFF700FD20788007A5
:1036800002D484A0FFF7FAFCFEE741463046FDF77E
:10369000B9FD30B3002239463046FDF7B8FD494642
:1036A0003046FDF7AFFDF0B15FF00000FEF7F8FB2C
:1036B0006D1CADB2642D10D32178C843800702D0B1
:1036C0007CA0FFF7DBFC2E49891C481EFCF7BBFFE2
:1036D00058B180A0FFF7D2FC00250A20FDF790FC2E
:1036E000D3E70122D7E70120E0E77F48FDF732F971
:1036F0006060192801DB012200E0002239463046D3
:10370000FDF785FDFEF78EFF012178A20846FFF741
:10371000DAF80223A27807210120FFF7B3F875A297
:103720000A210120FFF7CFF873A201210220FFF741
:10373000CAF80223E27807211846FFF7A3F870A21F
:103740000A210220FFF7BFF86EA201210320FFF734
:10375000BAF80323082118466268FFF793F86BA2B2
:103760000C210320FFF7AFF8FFF77CFAE278A1788D
:1037700067A06368FFF782FCFCF7AAFFACE70000D4
:1037800001000020D000002053797374656D20493A
:103790006E69742E2E2E0D0A00000000455350381D
:1037A00032363620496E69742E2E2E0D0A00000026
:1037B0004553503832363620496E6974205375634C
:1037C000636573730D0A00004F6E654E45542043C8
:1037D0006F6E6E656374696E672E2E2E0D0A000083
:1037E0004F6E654E455420436F6E6E656374204680
:1037F00061696C65640D0A004F6E654E4554204347
:103800006F6E6E65637420537563636573730D0A21
:103810000000000053797374656D20696E697469E6
:10382000616C697A6174696F6E206661696C656448
:103830002E205374617475733A20307825303258D5
:103840000D0A0000416C6C206D6F64756C6573200F
:10385000696E697469616C697A6564207375636304
:1038600065737366756C6C790D0A0000000C01407D
:103870002D204553503832363620696E697469619F
:103880006C697A6174696F6E206661696C65640D3C
:103890000A0000002D204F6E654E455420636F6E68
:1038A0006E656374696F6E206661696C65640D0A8C
:1038B0000000000053797374656D20737461747532
:1038C00073206572726F723A203078253032580D4D
:1038D0000A0000004448543131205265616420459B
:1038E00072726F720D0A00002800002054656D701E
:1038F0003A0000004300000048756D693A0000007E
:1039000025000000536D6F6B653A000070706D000C
:1039100074656D703A2025642C2068756D693A20B5
:1039200025642C20736D6F6B653A2025640D0A00A9
:10393000F0B50B30154D20F007010024144A0FE0BC
:1039400003688B420BD38B4205D95E1A4318476834
:10395000C3E9006700E04368136002C004E0021D91
:1039600010680028ECD12046002802D1286808B150
:103970000020F0BD064A07481060074A121A22F0DC
:103980000702C0E9002401202860D7E724000020B6
:10399000200000209C0100209803002001464FF6E3
:1039A000FF7314220148FEF729BA000088000020A6
:1039B0000000000000000000000000000000000007
:1039C000000000F80000000000000033300000009C
:1039D00000100C06100C06000000000000000000A3
:1039E00040C07840C0784000043F04043F04040015
:1039F000007088FC08300000001820FF211E000025
:103A0000F008F000E018000000211C031E211E0039
:103A100000F00888700000001E21232419272110BF
:103A200010160E0000000000000000000000000062
:103A3000000000E018040200000000071820400009
:103A400000020418E00000000040201807000000F9
:103A5000404080F0804040000202010F010202005D
:103A6000000000F0000000000101011F0101010041
:103A7000000000000000000080B0700000000000A6
:103A8000000000000000000000010101010101012F
:103A900000000000000000000030300000000000C6
:103AA000000000008060180400601806010000009B
:103AB00000E010080810E000000F102020100F0098
:103AC000001010F8000000000020203F202000001F
:103AD0000070080808887000003028242221300077
:103AE00000300888884830000018202020110E007F
:103AF0000000C02010F8000000070424243F240028
:103B000000F80888880808000019212020110E00FC
:103B100000E0108888180000000F112020110E000E
:103B200000380808C83808000000003F0000000006
:103B30000070880808887000001C222121221C00C7
:103B400000E010080810E0000000312222110F00F0
:103B5000000000C0C0000000000000303000000085
:103B600000000080000000000000806000000000F5
:103B7000000080402010080000010204081020000E
:103B80004040404040404000040404040404040059
:103B900000081020408000000020100804020100EE
:103BA000007048080808F0000000003036010000EE
:103BB000C030C828E810E0000718272423140B00A1
:103BC0000000C038E0000000203C2302022738201B
:103BD00008F8888888700000203F202020110E00FF
:103BE000C0300808080838000718202020100800F6
:103BF00008F808080810E000203F202020100F00DF
:103C000008F88888E8081000203F202023201800AA
:103C100008F88888E8081000203F20000300000012
:103C2000C03008080838000007182020221E0200B3
:103C300008F808000008F808203F210101213F2072
:103C4000000808F8080800000020203F202000009D
:103C500000000808F8080800C08080807F0000008D
:103C600008F888C028180800203F200126382000C6
:103C700008F8080000000000203F2020202030002D
:103C800008F8F800F8F80800203F003F003F200047
:103C900008F830C00008F808203F200007183F004F
:103CA000E01008080810E0000F10202020100F007E
:103CB00008F808080808F000203F21010101000071
:103CC000E01008080810E0000F18242438504F00B6
:103CD00008F8888888887000203F2000030C302076
:103CE00000708808080838000038202121221C00B4
:103CF000180808F8080818000000203F20000000FD
:103D000008F808000008F808001F202020201F00E5
:103D10000878880000C83808000007380E01000045
:103D2000F80800F80008F800033C0700073C03000F
:103D3000081868808068180820302C03032C302075
:103D40000838C800C83808000000203F20000000E4
:103D500010080808C838080020382621202018003C
:103D6000000000FE020202000000007F4040400010
:103D7000000C30C000000000000000010638C00048
:103D800000020202FE000000004040407F000000F0
:103D90000000040202020400000000000000000015
:103DA0000000000000000000808080808080808013
:103DB00000020204000000000000000000000000FB
:103DC00000008080808000000019242222223F20F1
:103DD00008F8008080000000003F112020110E0034
:103DE0000000008080800000000E112020201100C3
:103DF000000000808088F800000E112020103F2075
:103E00000000808080800000001F222222221300F8
:103E1000008080F0888888180020203F2020000043
:103E20000000808080808000006B949494936000F8
:103E300008F8008080800000203F210000203F2003
:103E400000809898000000000020203F2020000003
:103E5000000000809898000000C08080807F0000F3
:103E600008F8000080808000203F24022D302000D0
:103E7000000808F8000000000020203F202000007B
:103E80008080808080808000203F20003F20003F95
:103E90008080008080800000203F210000203F20A3
:103EA0000000808080800000001F202020201F0054
:103EB000808000808000000080FFA12020110E0083
:103EC0000000008080808000000E112020A0FF8074
:103ED000808080008080800020203F212000010021
:103EE0000000808080808000003324242424190076
:103EF000008080E0808000000000001F2020000083
:103F00008080000000808000001F202020103F20C3
:103F1000808080000080808000010E300806010053
:103F200080800080008080800F300C030C300F00F8
:103F300000808000808080000020312E0E31200023
:103F4000808080000080808080818E701806010053
:103F500000808080808080000021302C2221300071
:103F600000000000807C020200000000003F404092
:103F700000000000FF00000000000000FF00000043
:103F80000002027C800000000040403F0000000072
:103F9000000601010202040400000000000000000D
:103FA000010202030405060708090A0B0C0D0E0F97
:103FB0001010010202030405060708090A0B0C0D84
:103FC0000E0F1010000000000000000001020304AA
:103FD00006070809000000000102030476657273F9
:103FE000696F6E3D323031382D31302D33312672CC
:103FF00065733D70726F64756374732532467855CE
:10400000487364683477683325324664657669633B
:104010006573253246746573742665743D32303598
:1040200038353238383938266D6574686F643D6DBF
:104030006435267369676E3D796A34546D6B4471DB
:104040003741474A6352702532465A4E5A4C46779A
:104050002533442533440000784000080000002048
:1040600028000000E4300008A040000828000020DC
:1040700070070000F430000800000000000000009D
:10408000000000000100000010000000000000001F
:1040900000127A0000000000000000000000000094
:04000005080000ED02
:00000001FF
